:100000000C9472000C949A000C949A000C949A0030
:100010000C949A000C949A000C949A000C949A00F8
:100020000C949A000C949A000C949A000C949A00E8
:100030000C949A000C949A000C949A000C949A00D8
:100040000C94CF080C949A000C94DE070C94B8071B
:100050000C949A000C949A000C949A000C949A00B8
:100060000C949A000C949A00620DAE0D100E470E7F
:10007000AD0ED40E1E0F4E0F530FAE0FC80F101043
:100080008210D310311183110000000023002600DC
:10009000290000000008000201000003040700001E
:1000A00000000000000000000000250028002B00D8
:1000B00000000000240027002A00040404040404B3
:1000C0000404020202020202030303030303010207
:1000D00004081020408001020408102001020408D6
:1000E0001020461211241FBECFEFD8E0DEBFCDBFD7
:1000F00011E0A0E0B1E0E2EFFBE202C005900D925A
:10010000A83DB107D9F724E0A8EDB1E001C01D92E8
:10011000AC32B207E1F710E0C2E7D0E004C02197AB
:10012000FE010E949E14C137D107C9F70E94FA0B45
:100130000C94F7150C94000080E991E00895579A0B
:100140000895FC0182819381089580E090E00895F4
:10015000FC01858596850895CF93DF9300D000D06C
:1001600000D0CDB7DEB7AB011C821D821E82DC0140
:10017000ED91FC910190F081E02D19821A821B8291
:100180009E012F5F3F4FBE016C5F7F4F0995269602
:100190000FB6F894DEBF0FBECDBFDF91CF910895AB
:1001A0004F925F926F927F928F92AF92BF92CF9257
:1001B000EF92FF920F931F93CF93DF933C01EB01DC
:1001C0000E947008F30127853089621B730B6A3027
:1001D0007105B0F3F894E881F9815BB150688BB197
:1001E0008F778BB96A859F81262F291B922F2F83AA
:1001F000BF844A805B807D85FC84EE847F5FF394BE
:10020000E3943E814885A984CB841181D20120E00A
:10021000C32F022F322F3181112788943111390FCA
:1002200008F43FEF9195889470FD130F179588940B
:1002300071FD130F1795889472FD130F179588940D
:1002400073FD130F1795889474FD130F17958894F9
:1002500075FD130F1795889476FD130F17958894E5
:1002600077FD130F17958894232F7111212F960F67
:10027000122F002C5BB900C017FF8BB930812227E9
:10028000889400C000C0002C8BB931113C0F00C015
:10029000002C5BB900C016FF8BB908F43FEFC19585
:1002A000889400C000C0002C8BB9F0FC230F00C064
:1002B000002C5BB900C015FF8BB927958894F1FC21
:1002C000230F00C000C0002C8BB92795889400C074
:1002D000002C5BB900C014FF8BB9F2FC230F2795EB
:1002E000889400C000C0002C8BB9F3FC230F00C021
:1002F000002C5BB900C013FF8BB927958894F4FCE0
:10030000230F00C000C0002C8BB92795889400C033
:10031000002C5BB900C012FF8BB9F5FC230F2795A9
:10032000889400C000C0002C8BB9F6FC230F00C0DD
:10033000002C5BB900C011FF8BB927958894F7FC9E
:10034000230F00C000C0002C8BB92795889400C0F3
:10035000002C5BB900C010FF8BB9132FF110122FC6
:10036000CA0D00C000C0002C8BB900C000C0002C1A
:100370005BB900C017FF8BB932812227889400C077
:1003800000C0002C8BB93111340F00C0002C5BB9B8
:1003900000C016FF8BB908F43FEFEB0DF11D00C054
:1003A00000C0002C8BB9E0FC230F00C0002C5BB90F
:1003B00000C015FF8BB927958894E1FC230F00C07E
:1003C00000C0002C8BB92795889400C0002C5BB925
:1003D00000C014FF8BB9E2FC230F2795889400C05E
:1003E00000C0002C8BB9E3FC230F00C0002C5BB9CC
:1003F00000C013FF8BB927958894E4FC230F00C03D
:1004000000C0002C8BB92795889400C0002C5BB9E4
:1004100000C012FF8BB9E5FC230F2795889400C01C
:1004200000C0002C8BB9E6FC230F00C0002C5BB988
:1004300000C011FF8BB927958894E7FC230F00C0FB
:1004400000C0002C8BB92795889400C0002C5BB9A4
:1004500000C010FF8BB9132FE110122F419500C07F
:1004600000C0002C8BB94C0D00C000C05BB900C0AF
:1004700017FF8BB931812227889400C000C0002C5F
:100480008BB93111390F00C0002C5BB900C016FFC9
:100490008BB908F43FEF9195889400C000C0002C00
:1004A0008BB970FD230F00C0002C5BB900C015FF95
:1004B0008BB92795889471FD230F00C000C0002CD4
:1004C0008BB92795889400C0002C5BB900C014FF3D
:1004D0008BB972FD230F2795889400C000C0002CB3
:1004E0008BB973FD230F00C0002C5BB900C013FF54
:1004F0008BB92795889474FD230F00C000C0002C91
:100500008BB92795889400C0002C5BB900C012FFFE
:100510008BB975FD230F2795889400C000C0002C6F
:100520008BB976FD230F00C0002C5BB900C011FF12
:100530008BB92795889477FD230F00C000C0002C4D
:100540008BB92795889400C0002C5BB900C010FFC0
:100550008BB9132F7111122F960F00C000C0002C01
:100560008BB9119709F086CE20EE31E0D2010E94BE
:10057000A414DC01CB01F4E0B695A7959795879577
:10058000FA95D1F720E030E0A9016AE9469E040C13
:10059000411D569E400D511D1124450D511D840FC6
:1005A000951FA11DB11D893E43E09407A105B1052A
:1005B00008F434C0885E9340A109B10942E0B695C1
:1005C000A795979587954A95D1F747E0849F080EA0
:1005D000211D949F200D311D1124290F311D609183
:1005E000D80170E0860F971F820F931F40916E0312
:1005F00050916F036091700370917103292F33271D
:10060000420F531F611D711D40936E0350936F0382
:1006100060937003709371038093D80178940E9463
:100620007008F301708B6787DF91CF911F910F9155
:10063000FF90EF90CF90BF90AF908F907F906F9092
:100640005F904F9008950F931F93CF93DF93CDB793
:10065000DEB762970FB6F894DEBF0FBECDBF8C0138
:10066000F901DC011C968C917A8369835C834B834E
:100670005E834D8390819D8791819E8792819F8724
:10068000813029F4CE0101960E94BF0906C01C8664
:100690001B861A86198618861F8283E0888B1A8A21
:1006A000198AD801ED91FC910484F585E02DBE01F5
:1006B0006F5F7F4FC801099562960FB6F894DEBF51
:1006C0000FBECDBFDF91CF911F910F9108950F9372
:1006D0001F93CF93DF93CDB7DEB762970FB6F89431
:1006E000DEBF0FBECDBF8C01F901DC011C968C91E1
:1006F0007A8369835C834B835E834D8390819D877E
:1007000091819E8792819F87813029F4CE01019645
:100710000E94BF0906C01C861B861A861986188689
:100720001F82188A1A8A198AD801ED91FC910484D3
:10073000F585E02DBE016F5F7F4FC8010995629678
:100740000FB6F894DEBF0FBECDBFDF91CF911F91E2
:100750000F910895EF92FF921F93CF93DF93DC01E7
:1007600012962D913C9113971216130614F5213011
:10077000310599F0EC018C819D81FC01E180F280D2
:1007800010810E945A15FD82EC828A819B8101971B
:100790009B838A831C86812F0DC0DC01ED91FC9127
:1007A0000484F585E02DDF91CF911F91FF90EF90AC
:1007B000099480E0DF91CF911F91FF90EF90089511
:1007C0000F931F93CF93DF931F92CDB7DEB78C01AA
:1007D00083E090E069830E94C514DC0112961C92AC
:1007E0001E92119769816C93F80124813581232B26
:1007F00059F00680F781E02D92838183D801179606
:100800009C938E93169705C0F801958384839783F4
:100810008683D80112968D919C9113970196139619
:100820009C938E9312971C961C9281E00F90DF91FF
:10083000CF911F910F910895DC011496ED91FC91D9
:1008400015971C968C911C97882361F01A962D9110
:100850003C911B97621773072CF01896ED91FC9151
:1008600019970AC020E030E007C03097C9F0018036
:10087000F281E02D2F5F3F4F26173707B4F326177D
:10088000370771F481E01C968C931C971B963C9360
:100890002E931A971996FC93EE931897CF0108950B
:1008A00080E090E00895EF92FF921F93CF93DF9343
:1008B000FC01628173811616170654F5EC0114864B
:1008C00061307105B9F0625071090E941C047C010D
:1008D000FC0181819281FC0110810E945A15F7016F
:1008E00012821182FF82EE828A819B8101979B8313
:1008F0008A830CC084819581FC0110810E945A1565
:100900001D821C821F821E821B821A82812F01C0BF
:1009100080E0DF91CF911F91FF90EF9008951F939A
:10092000CF93DF9377FD3CC0DC0112962D913C9173
:10093000139762177307A4F56115710531F4ED91F2
:10094000FC910684F785E02D0BC021503109621718
:10095000730751F4DC01ED91FC910484F585E02DE1
:10096000DF91CF911F910994EC01615071090E94B0
:100970001C04DC011196ED91FC91129710812181EC
:10098000328112963C932E931197CF010E945A15F3
:100990008A819B8101979B838A831C86812F01C05A
:1009A00080E0DF91CF911F9108950E94590895959D
:1009B0008795959587950895FF920F931F93CF93F1
:1009C000DF9300D01F92CDB7DEB78C0180E090E0BE
:1009D0000E94D504F82E81E090E00E94D504F982AF
:1009E00098EC9A838B8369ED71E0CE0101960E94A9
:1009F000190920E030E08091D901F901E752FE4F5A
:100A000083838091DA0184838091DB0185832D5F6C
:100A10003F4F253681E0380771F70E940C0AB80174
:100A2000110F880B990B0E9495080F900F900F9053
:100A3000DF91CF911F910F91FF9008954091000198
:100A40005091010125E038E0429FC001439F900D85
:100A5000529F900D1124875E994C909301018093D1
:100A60000001890F0895CF92DF92EF92FF920F93CA
:100A70001F93CF93DF936C017A018B01C0E0D0E02C
:100A8000CE15DF0589F0D8016D918D01D601ED916C
:100A9000FC910190F081E02DC6010995892B11F49C
:100AA0007E0102C02196ECCFC701DF91CF911F914B
:100AB0000F91FF90EF90DF90CF900895089580E020
:100AC00090E00895FC01538D448D252F30E0842F54
:100AD00090E0821B930B541710F0CF960895019766
:100AE0000895FC01918D828D981761F0828DDF0150
:100AF000A80FB11D5D968C91928D9F5F9F73928F11
:100B000090E008958FEF9FEF0895FC01918D828D05
:100B1000981731F0828DE80FF11D858D90E00895D2
:100B20008FEF9FEF0895FC01918D228D892F90E02A
:100B3000805C9F4F821B91098F739927089584E7EA
:100B400093E00E94930521E0892B09F420E0822F95
:100B50000895FC01848DDF01A80FB11DA35ABF4F7A
:100B60002C91848D90E001968F739927848FA689AC
:100B7000B7892C93A089B1898C9180648C93938DD3
:100B8000848D981306C00288F389E02D80818F7DC3
:100B900080830895EF92FF920F931F93CF93DF937B
:100BA000EC0181E0888F9B8D8C8D981305C0E889BE
:100BB000F989808185FD24C0F62E0B8D10E00F5F32
:100BC0001F4F0F731127E02E8C8DE8120CC00FB64B
:100BD00007FCFACFE889F989808185FFF5CFCE013E
:100BE0000E94A905F1CF8B8DFE01E80FF11DE35A9C
:100BF000FF4FF0820B8FEA89FB898081806207C0FA
:100C0000EE89FF896083E889F98980818064808327
:100C100081E090E0DF91CF911F910F91FF90EF90D5
:100C20000895CF93DF93EC01888D8823C9F0EA897A
:100C3000FB89808185FD05C0A889B9898C9186FDD5
:100C40000FC00FB607FCF5CF808185FFF2CFA889D2
:100C5000B9898C9185FFEDCFCE010E94A905E7CF20
:100C6000DF91CF91089580E090E0892B29F00E94D8
:100C70009F0581110C94000008950F931F93CF934B
:100C8000DF93EC018B0169817A816115710551F067
:100C9000CE01F80109951816190624F00980DA81A9
:100CA000C02DF1CFCE01DF91CF911F910F9108950B
:100CB0004F925F926F927F928F929F92AF92BF926C
:100CC000CF92DF92EF92FF920F931F93CF93DF9318
:100CD000DC0112962D913C911397223031050CF4D2
:100CE00074C05B016C012C01B4E04B0E511C72010D
:100CF000D701CD91DC912097D1F3B501CE010E94AF
:100D00003D064C01FC01018112810115110559F4C8
:100D1000E414F50461F7D60117969C938E93169709
:100D20001C961C9252C0B501C8010E943D06FC01F0
:100D300061807280D40112961C921E9211971282C9
:100D40001182B801CE01F5010995181619068CF02B
:100D5000D701CD93DC937E01BFEFEB1AFB0A09802C
:100D6000DA81C02D209769F7F801D7010D931C9304
:100D70001FC0F701118300837801FFEFEF1AFF0A0C
:100D8000D80111960D911C91129701151105C9F604
:100D9000F701D183C08389819A81009711F0EC011A
:100DA000FACF7A8269827E01FFEFEF1AFF0AA0CFA5
:100DB00081819281009711F0FC01FACF72826182E9
:100DC0007F018FEFE81AF80A93CFDF91CF911F913F
:100DD0000F91FF90EF90DF90CF90BF90AF909F90DA
:100DE0008F907F906F905F904F900895CF93DF9397
:100DF000EC01E881F9810190F081E02DCE010995A7
:100E00001816190644F4E881F9810684F785E02D67
:100E1000CE010995EECFDF91CF9108950E94F21592
:100E20000E941C04009719F0FC018081089580E065
:100E30000895CF9377FD0DC0FC01228133816217A5
:100E400073073CF4C42F0E941C04FC01C08381E0A2
:100E500001C080E0CF910895DF92EF92FF920F934F
:100E60001F93CF93DF939B01642FDC0112964D916A
:100E70005C9113972417350734F0ED91FC910480B1
:100E8000F581E02D09C02115310571F4DC01ED91EA
:100E9000FC910680F781E02DDF91CF911F910F919A
:100EA000FF90EF90DF900994D62EE9018C0183E04A
:100EB00090E00E94C5147C01FC0110821282118214
:100EC000BE0161507109C8010E941C04D701DC9267
:100ED000FC012181328112963C932E931197F2826C
:100EE000E182D80112968D919C91139701961396E9
:100EF0009C938E9312971C961C9281E0DF91CF9168
:100F00001F910F91FF90EF90DF900895FF920F9344
:100F10001F93CF93DF93DC0112960D911C911397D1
:100F20000115110559F4ED91FC910480F581E02D36
:100F3000DF91CF911F910F91FF900994F62EEC0154
:100F400083E090E00E94C5142C813D81FC01328336
:100F50002183F0829D838C830F5F1F4F1B830A8345
:100F60001C8681E0DF91CF911F910F91FF90089532
:100F70001F920F920FB60F9211242F933F934F930E
:100F80005F936F937F938F939F93AF93BF93EF93F1
:100F9000FF9384E793E00E94A905FF91EF91BF9131
:100FA000AF919F918F917F916F915F914F913F9101
:100FB0002F910F900FBE0F901F9018951F920F92B8
:100FC0000FB60F9211242F938F939F93EF93FF935C
:100FD000E0918403F09185038081E0918A03F09190
:100FE0008B0382FD12C0908180918D038F5F8F7380
:100FF00020918E03821751F0E0918D03F0E0EC58C0
:10100000FC4F958F80938D0301C08081FF91EF91FC
:101010009F918F912F910F900FBE0F901F90189559
:1010200090E0FC01EE56FF4F2491FC01E253FF4F8C
:101030003491FC01E654FF4FE491EE23B9F12223F1
:1010400039F1233091F038F42130A9F0223001F544
:1010500084B58F7D12C0273091F02830A1F0243064
:10106000B9F4809180008F7D03C0809180008F77DC
:10107000809380000DC084B58F7784BD09C08091B6
:10108000B0008F7703C08091B0008F7D8093B00057
:10109000F0E0EE0FFF1FE857FF4FA591B491EC91E0
:1010A0003E2381E090E021F480E0089580E090E02C
:1010B00008958E3008F08E508770806480937C0095
:1010C00080917A00806480937A0080917A0086FD16
:1010D000FCCF809178002091790090E0922B0895C8
:1010E0003FB7F89480916A0390916B03A0916C03D1
:1010F000B0916D0326B5A89B05C02F3F19F001964E
:10110000A11DB11D3FBFBA2FA92F982F8827820F8D
:10111000911DA11DB11DBC01CD0142E0660F771FDD
:10112000881F991F4A95D1F708958F929F92AF9289
:10113000BF92CF92DF92EF92FF926B017C010E94EF
:1011400070084B015C01C114D104E104F104F1F019
:101150000E947008DC01CB0188199909AA09BB0912
:10116000883E9340A105B10570F321E0C21AD10871
:10117000E108F10888EE880E83E0981EA11CB11CDE
:10118000C114D104E104F10419F7DDCFFF90EF9011
:10119000DF90CF90BF90AF909F908F9008951F9257
:1011A0000F920FB60F9211242F933F938F939F931B
:1011B000AF93BF9380916E0390916F03A0917003E2
:1011C000B09171033091690323E0230F2D3720F490
:1011D0000196A11DB11D05C026E8230F0296A11D91
:1011E000B11D2093690380936E0390936F03A093C6
:1011F0007003B093710380916A0390916B03A09187
:101200006C03B0916D030196A11DB11D80936A031B
:1012100090936B03A0936C03B0936D03BF91AF9158
:101220009F918F913F912F910F900FBE0F901F9024
:101230001895DC01FB014C9111965C911197129667
:101240007C91342F3F71330F330F832F880F35E597
:10125000282F239F020E20E0211D1124642F60748B
:10126000942F907247FD21C061110BC0911104C0F1
:10127000822F8095422F11C045E5420F30E02BEAC6
:1012800033C091110DC0382F4AEA349F030E30E06D
:10129000311D11248BEA831B420F282F30E024C01C
:1012A00080E0422F4095322F0EC0611111C0911184
:1012B0000CC0382F2AEA329F030E30E0311D112472
:1012C0004BEA431B3B5A20E00FC0322F30950BC036
:1012D000911104C085E5820F3BEA03C08AEA820FC0
:1012E00090E0321B282F40E05F3F11F15523E9F0D9
:1012F000222321F0259F020E20E0211D442321F00E
:10130000459F040E40E0411D332321F0359F030E1D
:1013100030E0311D11245095559F050E50E0511DB0
:101320001124250F450F350F03C03FEF4FEF2FEF6F
:101330007F3F09F420C050E0772321F0779F512DA3
:1013400009F05F5F5523A1F0222321F0259F020EB3
:1013500020E0211D442321F0459F040E40E0411D63
:10136000332321F0359F030E30E0311D112403C0DB
:1013700030E040E020E02083418332830895EF9203
:10138000FF920F931F93CF93DF93EC01909168032B
:101390009F5F292F27702093680390FF02C090E879
:1013A00001C090E021FD9064247009F0906220E17A
:1013B000290FFE013C967E018FE0E80EF11C00E053
:1013C00011E06191662331F070E0C8010E94491478
:1013D0006F5F01C060E0DF0114976C93322F369F7E
:1013E000030E30E0311D1124CF010797311103C0E6
:1013F000EC01188203C03150EC013883662311F0F0
:1014000061506C93EE15FF05E1F6DF91CF911F91CE
:101410000F91FF90EF9008953F924F925F926F92DD
:101420007F928F929F92AF92BF92CF92DF92EF9274
:10143000FF920F931F93CF93DF9300D01F92CDB7EE
:10144000DEB7F09011048091140490911504A091DE
:101450001604B0911704892B8A2B8B2BE9F00E947C
:1014600070080091240410912504209126043091E5
:101470002704DC01CB01801B910BA20BB30B009165
:10148000140410911504209116043091170480174C
:101490009107A207B307B8F20E9470086093240472
:1014A000709325048093260490932704E0911C04F4
:1014B000F0911D04309759F040911804509119048F
:1014C00060911A0470911B048F2D0995F82E0091DC
:1014D0007203109173034F2C512C612C712C011548
:1014E000110509F461C0D8011C96EC901C978091FD
:1014F0001204909113048436910510F41C961C92EA
:10150000D801ED91FC91A280B38019821A821B82CE
:10151000F11014C0F80145855685628173819E01E2
:101520002F5F3F4FC801F5010995D8011C96EC9239
:101530001C9714960D911C911597D1CFF8013996EF
:10154000CE0101966C0148019CE0890E911CDF01DF
:1015500013973C902191332001F12223F1F0822F47
:1015600090E0A0E0B0E09C01AD012F5F3F4F4F4FF6
:101570005F4FC301B2010E9419149B01AC01832D7E
:1015800090E0A0E0B0E0BC01CD016F5F7F4F8F4FD6
:101590009F4F0E941914D6018C93BFEFCB1ADB0A20
:1015A000E815F905A1F6B6CF8091220490912304A5
:1015B0009C012F5F3F4F30932304209322044997CF
:1015C0000CF447C08FB7F89400916E0310916F032D
:1015D00020917003309171038FBFE0912204F0914C
:1015E000230488EE93E0E89FB001E99F700DF89F17
:1015F000700D1124072E000C880B990BC0901E044F
:10160000D0901F04E0902004F0902104A9019801DB
:101610002C193D094E095F090E945D143093130493
:101620002093120410922304109222042FB7F894EE
:1016300080916E0390916F03A0917003B09171033C
:101640002FBF80931E0490931F04A0932004B09397
:1016500021040F900F900F90DF91CF911F910F9168
:10166000FF90EF90DF90CF90BF90AF909F908F90C2
:101670007F906F905F904F903F900895009769F032
:10168000FC0101900020E9F73197AF01481B590B8D
:10169000BC0184E793E00C94330580E090E008956A
:1016A0008F929F92AF92BF92CF92DF92EF92FF9272
:1016B0000F931F93CF93DF93CDB7DEB7A1970FB6EC
:1016C000F894DEBF0FBECDBF6C01990FEE08FF0886
:1016D000F7FE31C0E0917403F09175030190F08141
:1016E000E02D6DE284E793E009958C0122273327F2
:1016F000A9012C193D094E095F0919A2CE01819655
:101700007C019AE0892E912CA12CB12CCA01B9013F
:10171000A50194010E945D14605DF70162937F0151
:10172000211531054105510589F7CF010E943E0B76
:10173000080F191F1EC0A701960119A28E010F5D87
:101740001F4F8AE0C82ED12CE12CF12CCA01B9011F
:10175000A70196010E945D14605DF80162938F01FC
:10176000211531054105510589F7CF010E943E0B36
:101770008C0184ED91E00E943E0B800F911FA19699
:101780000FB6F894DEBF0FBECDBFDF91CF911F9192
:101790000F91FF90EF90DF90CF90BF90AF909F9010
:1017A0008F900895CF93DF9390E0FC01E253FF4FB9
:1017B0002491FC01E654FF4F84918823C1F090E00E
:1017C000880F991FFC01E055FF4FC591D491FC0192
:1017D000EA55FF4FA591B4919FB7F8948881E22F05
:1017E000E0958E2388838C91E823EC939FBFDF9153
:1017F000CF910895CF93DF93CDB7DEB76B970FB638
:10180000F894DEBF0FBECDBF789484B5826084BDEE
:1018100084B5816084BD85B5826085BD85B58160F4
:1018200085BD80916E00816080936E001092810072
:10183000809181008260809381008091810081602D
:1018400080938100809180008160809380008091EE
:10185000B10084608093B1008091B000816080937A
:10186000B00080917A00846080937A0080917A0041
:10187000826080937A0080917A00816080937A0000
:1018800080917A00806880937A001092C10068EBA2
:101890007BE080E090E00E949508E0918403F09165
:1018A000850382E08083E0918003F09181031082C0
:1018B000E0918203F09183038FEC808310928C037C
:1018C000E0918803F091890386E08083E0918603AC
:1018D000F0918703808180618083E0918603F0919D
:1018E0008703808188608083E0918603F09187037D
:1018F000808180688083E0918603F09187038081F6
:101900008F7D808380915403811145C010924603DE
:10191000109245038FEF8093490380934A0380938D
:101920004B0380934C0380934D0380934E0381E0DF
:1019300080934F031092510310925003109248036A
:10194000109247038091720390917303892B31F4B5
:1019500083E493E09093730380937203E0914103D7
:10196000F0914203309721F083E493E095838483E0
:1019700083E493E0909342038093410310925303D6
:10198000109252038AE391E09093440380934303BF
:1019900081E080935403E0914303F0914403048079
:1019A000F581E02D83E493E0099589ED91E0909332
:1019B00046038093450388E790E09093510380931A
:1019C0005003E0914303F09144030284F385E02D3A
:1019D00083E493E00995009729F19C0140E050E0F1
:1019E00060E472E48FE090E00E947F14722F632F16
:1019F00000911404109115042091160430911704DD
:101A0000872F962FDA0180179107A207B30710F4EA
:101A1000D901C8018093140490931504A09316046F
:101A2000B09317048FEF8093490380EB80934A03B0
:101A300080EF80934B038DE78093110482E00E9436
:101A4000D20B83E00E94D20B84E00E94D20B85E08F
:101A50000E94D20BBCE8AB2EB1E0BB2E44244A94CA
:101A600013E0512E612C712C85E00E9410088C012E
:101A700084E00E941008880F991F080F191F83E047
:101A80000E941008880F991F880F991F080F191FAF
:101A900082E00E941008A3E0880F991FAA95E1F741
:101AA000080F191F84EB91E00E943E0BC8010E94B1
:101AB000500B0031110508F0D0C4F801EC5CFF4F69
:101AC0000C949E1480E00E9459088C0128E730E0B5
:101AD000DC010E94A414A30192010E947F147901E9
:101AE0008FEB91E0288F398F4A8F5B8F0E943E0BDE
:101AF000C8010E94500B88EC91E00E943E0B288D9B
:101B0000398DC9010E94500B79EDC72E71E0D72E97
:101B1000EBEDF1E080E090E04FEF54E163E970EC31
:101B20001BEC9F0121503109D6014C93D9018E1530
:101B30009F051CF47C93108302C05C936083019624
:101B4000B3E0CB0ED11C33968837910551F70E9434
:101B50000C0A69E170E080E090E0D2C38AE0E8E03E
:101B6000F1E0DE01119601900D928A95E1F70E9455
:101B70001E05D82E0E941E0580E090E00E94D5042C
:101B8000FE0131967F0100E010E0CC24CA9466E9A2
:101B9000962E89ED91E0FC01EE59FE4F208133969F
:101BA0002083329720813396208332972081339689
:101BB00020830397F0E084379F0769F7053011050C
:101BC00034F4D7018C91DE86CF86888B03C0DE8605
:101BD000CF86988ABE016F5E7F4FCE010E960E941F
:101BE000190989898093D9018A898093DA018B89BF
:101BF0008093DB010E940C0A80E090E00E94D504F3
:101C0000682F70E080E090E00E9495080F5F1F4F02
:101C1000B2E0EB0EF11C0837110509F0BACF33C45E
:101C200080E090E00E94D504182F29ED31E0F90101
:101C3000EE59FE4F808133968083329780813396B0
:101C40008083329780813396808323503109E0E08E
:101C500024373E0761F70E941E0563E00E942914A5
:101C60008FEF8093D901992329F080EC8093DA01DA
:101C70008BEC04C084E18093DA0183E98093DB017B
:101C80000E940C0A612F70E080E090E039C38AE086
:101C9000E2E1F1E0DE01119601900D928A95E1F703
:101CA0009E012F5F3F4F690159EDE52E51E0F52E62
:101CB00000E010E033243A9480E090E00E94D504E4
:101CC000882E81E090E00E94D504982EF701B1E0C3
:101CD000E93DFB0799F0AF0143505109DA018C91BE
:101CE00080839F0122503109D9018C9181832F5F1C
:101CF0003F4FD9018C918283FA01E9CF053011055C
:101D00001CF4F601808101C080E08E863F86888BBE
:101D1000BE016F5E7F4FCE010E960E941909898920
:101D20008093D9018A898093DA018B898093DB01C2
:101D30000E940C0A692D70E080E090E00E949508F6
:101D40000F5F1F4FF2E0CF0ED11C23E0E20EF11C1B
:101D50000837110509F0B0CF96C380E090E00E94EB
:101D6000D504F82E09ED11E0EE24EA9480915C038D
:101D70008983EA82EB82B801CE0101960E9419099B
:101D80000D5F1F4F33E00134130781F70E940C0AE7
:101D90006F2D70E080E090E00E94950880915C03D8
:101DA0008D5F80935C036FC380E00E9459087C01C3
:101DB00081E090E00E94D504182F2FEF30E0D7018A
:101DC0000E94A414A30192010E947F1449ED51E0E6
:101DD000FA01EE59FE4F80813396808332978081DD
:101DE00033968083329780813396808343505109A4
:101DF00080E04437580761F7E0915D03F0915E039E
:101E0000EF71FF27EE0FFF1FE85BFE4F80818C54C0
:101E100029838A838FEF8B8369ED71E0CE01019670
:101E20000E9419090E940C0A80915D0390915E0343
:101E3000019690935E0380935D0324CF80E090E051
:101E40000E94D504F82E81E090E00E94D504082F6E
:101E500082E090E00E94D504182FF9828EED8A83EB
:101E60000B8369ED71E0CE0101960E94190929EDFD
:101E700031E0F901EE59FE4F80813396808332972D
:101E8000808133968083329780813396808323507C
:101E9000310990E02437390761F7F2CE89E190E00B
:101EA0000E94DC04F0C280E090E00E94D504182F6C
:101EB000C0905F03D0906003E0906103F0906203F4
:101EC000C701B6010E94EF1269838FEF8A838B836B
:101ED00069ED71E0CE0101960E94190929ED31E00A
:101EE000F901EE59FE4F80813396808332978081CD
:101EF00033968083329780813396808323503109D3
:101F0000A0E024373A0761F781E00E945908BC013C
:101F1000990F880B990B0E94201320E030E040E8D5
:101F20005AE30E94AC1320E030E040E251E40E940A
:101F3000AC132DEC3CEC4CEC5EE30E9483129B0155
:101F4000AC01C701B6010E94831260935F037093D6
:101F50006003809361039093620392CE82E00E94BB
:101F600059088C010E94DC0480E090E0FC01E752FB
:101F7000FE4F10821182128203968836B1E09B07D1
:101F8000A9F70E940C0AB801110F880B990BB8C170
:101F900080E090E00E94D504D82E81E090E00E947D
:101FA000D504C82E82E090E00E94D50439EDE32EDE
:101FB00031E0F32E00E010E099249A94E09163035D
:101FC000F0E0EE0FFF1FE85BFE4F80819181800FF4
:101FD000911F60E570E00E9435140E9710F0D982D1
:101FE00001C0C9829A829B82B701CE0101960E94EC
:101FF00019090F5F1F4FE3E0EE0EF11C08371105C2
:10200000E9F60E940C0A69E170E080E090E00E942D
:102010009508809163038F5F8F718093630333C250
:102020008AE0ECE1F1E0DE01119601900D928A95D3
:10203000E1F70E941E05D82E0E941E0580E090E068
:102040000E94D5049E012F5F3F4F790100E010E010
:10205000CC24CA9429ED31E080E090E0FC01E75205
:10206000FE4F438140834481418345814283F9018E
:10207000EE59FE4F4081339640833297408133962C
:102080004083329740813396408303962350310931
:10209000843B910519F7053011052CF4D7018C917B
:1020A000DE868F8702C0DE86CF86C88ABE016F5E5D
:1020B0007F4FCE010E960E941909298920938D0227
:1020C0009A8990938E028B8980938F02209390023D
:1020D00090939102809392020E940C0A80E090E01B
:1020E0000E94D504682F70E080E090E00E9495087F
:1020F0000F5F1F4FB2E0EB0EF11C0C33110509F01E
:10210000A9CFC1C10E941E05C82EE82EF12C0E9445
:102110001E05982E082F10E0C80148968E159F05C1
:1021200024F0C097E816F90694F70E941E05882E41
:1021300090E09C01285E3F4F2017310774F480E047
:1021400090E00E94D504D82E99EDE92E91E0F92E69
:1021500000E010E033243A9405C0489708171907A7
:1021600024F7EDCF0832110514F4C98206C00035FA
:10217000110514F4998201C089823A823B82B70129
:10218000CE0101960E9419090F5F1F4FE3E0EE0E8A
:10219000F11C0837110531F70E940C0AF9E1DF9EA6
:1021A000B0011124A9C00E941E0590915402909381
:1021B000C902909155029093CA0290915602909351
:1021C000CB029091D901909351029091DA019093B2
:1021D00052029091DB019093530289838FEF8A839F
:1021E0008B8369ED71E0CE0101960E941909EEED35
:1021F000F1E0DF0115978C9113968C9312978C91D7
:1022000013968C9312978C918083AA58BF4F8C9110
:1022100013968C9312978C9113968C9312978C91A2
:1022200013968C93AD58BF4F8C9113968C93129745
:102230008C9113968C9312978C9113968C93339662
:1022400022E0E335F207A9F680E090E00E94D50491
:10225000888F0E940C0A888D39E1839FB001112478
:102260004BC0809167038F5F8093670363E00E9498
:102270002914911105C00E941E05809366030BC0AE
:10228000913029F40E941E058093650304C00E94CA
:102290001E058093640380E090E00E94D504C82E60
:1022A00089EDE82E81E0F82E00E010E0DD24DA94DC
:1022B000083211051CF48091660308C00035110531
:1022C0001CF48091650302C0809164038983DA82E3
:1022D000DB82B701CE0101960E9419090F5F1F4FE3
:1022E00043E0E40EF11C0837110511F70E940C0AB7
:1022F00059E1C59EB0011124072E000C880B990BE3
:102300000E949508C0C0BA82A9821E821D821886CA
:102310001F821C821B821A8619861C861B861D86BC
:1023200060E0CE0101960E94E00361E0CE010196DB
:102330000E94E00362E0CE0101960E94E00363E0A8
:10234000CE0101960E94E00364E0CE0101960E9456
:10235000E00365E0CE0101960E94E00366E0CE0155
:1023600001960E94E00367E0CE0101960E94E0031F
:1023700068E0CE0101960E94E00369E0CE0101967B
:102380000E94E0030E941E05382E80E090E00E942B
:10239000D50422242A94282F30E040E050E02C8BF2
:1023A0003D8B4E8B5F8B8B819C81892BD1F10E9461
:1023B0001E0590E06B817C810E944914BC01CE0116
:1023C00001960E948F043CE0839F802D112443E0FE
:1023D000849F70011124082F10E0C12CD12C4801DA
:1023E0005BE0850E911C8016910694F03E862F8648
:1023F000288AB6016E0D7F1D67527E4FCE010E9664
:102400000E9419090F5F1F4F83E0C80ED11CEBCF4C
:102410000E940C0A6C897D898E899F890E9495088B
:10242000C2CF81E090E00E94D504AAE08A9FC0015B
:102430001124BC01990F880B990B0E949508BA8250
:10244000A9828D819E810097F1F0FC01218132816A
:102450003E832D830E945A15F4CF80E090E00E94C5
:10246000D504F82E09ED11E019821A82FB82B80119
:10247000CE0101960E9419090D5F1F4FF3E0013450
:102480001F0791F764CB0E943306EECAE4E7F3E03E
:102490001382128288EE93E0A0E0B0E084839583FB
:1024A000A683B78386EA91E09183808385EC90E0F0
:1024B0009587848784EC90E09787868780EC90E00E
:1024C000918B808B81EC90E0938B828B82EC90E0FF
:1024D000958B848B86EC90E0978B868B118E128E79
:1024E000138E148EE1E1F4E08FEF8083128211826B
:1024F000148613868FEF9FEFDC0187839087A18777
:10250000B28708955058BB27AA270E949A120C94AC
:1025100072130E94641338F00E946B1320F039F498
:102520009F3F19F426F40C9461130EF4E095E7FB39
:102530000C945B13E92F0E94831358F3BA176207B8
:1025400073078407950720F079F4A6F50C94A5137A
:102550000EF4E0950B2EBA2FA02D0B01B9019001BE
:102560000C01CA01A0011124FF27591B99F0593F02
:1025700050F4503E68F11A16F040A22F232F342F4A
:102580004427585FF3CF469537952795A795F04098
:102590005395C9F77EF41F16BA0B620B730B840BAD
:1025A000BAF09150A1F0FF0FBB1F661F771F881F65
:1025B000C2F70EC0BA0F621F731F841F48F48795BD
:1025C00077956795B795F7959E3F08F0B0CF9395AF
:1025D000880F08F09927EE0F9795879508950E9428
:1025E0008B1388F09F5798F0B92F9927B751B0F007
:1025F000E1F0660F771F881F991F1AF0BA95C9F787
:1026000014C0B13091F00E94A513B1E008950C946C
:10261000A513672F782F8827B85F39F0B93FCCF31F
:10262000869577956795B395D9F73EF49095809503
:10263000709561957F4F8F4F9F4F0895E89409C023
:1026400097FB3EF490958095709561957F4F8F4FE5
:102650009F4F9923A9F0F92F96E9BB279395F695FB
:10266000879577956795B795F111F8CFFAF4BB0F79
:1026700011F460FF1BC06F5F7F4F8F4F9F4F16C0DD
:10268000882311F096E911C0772321F09EE8872F67
:10269000762F05C0662371F096E8862F70E060E023
:1026A0002AF09A95660F771F881FDAF7880F96959C
:1026B000879597F9089597F99F6780E870E060E043
:1026C00008959FEF80EC089500240A9416161706CB
:1026D00018060906089500240A9412161306140613
:1026E00005060895092E0394000C11F4882352F076
:1026F000BB0F40F4BF2B11F460FF04C06F5F7F4F2E
:102700008F4F9F4F089557FD9058440F551F59F014
:102710005F3F71F04795880F97FB991F61F09F3FCE
:1027200079F087950895121613061406551FF2CFF7
:102730004695F1DF08C0161617061806991FF1CF47
:1027400086957105610508940895E894BB2766276E
:102750007727CB0197F908950E94BF130C94721349
:102760000E94641338F00E946B1320F0952311F03F
:102770000C945B130C94611311240C94A6130E9407
:10278000831370F3959FC1F3950F50E0551F629F1F
:10279000F001729FBB27F00DB11D639FAA27F00DBA
:1027A000B11DAA1F649F6627B00DA11D661F829FE1
:1027B0002227B00DA11D621F739FB00DA11D621FC6
:1027C000839FA00D611D221F749F3327A00D611DE3
:1027D000231F849F600D211D822F762F6A2F1124C5
:1027E0009F5750409AF0F1F088234AF0EE0FFF1FF8
:1027F000BB1F661F771F881F91505040A9F79E3F4F
:10280000510580F00C945B130C94A6135F3FE4F326
:10281000983ED4F3869577956795B795F795E795A4
:102820009F5FC1F7FE2B880F911D9695879597F9AD
:102830000895DB018F939F930E94AB14BF91AF91DA
:10284000A29F800D911DA39F900DB29F900D11240A
:102850000895991B79E004C0991F961708F0961BFC
:10286000881F7A95C9F780950895AA1BBB1B51E173
:1028700007C0AA1FBB1FA617B70710F0A61BB70BF0
:10288000881F991F5A95A9F780959095BC01CD0195
:10289000089597FB072E16F4009407D077FD09D012
:1028A0000E94351407FC05D03EF4909581959F4F0A
:1028B0000895709561957F4F0895A1E21A2EAA1B85
:1028C000BB1BFD010DC0AA1FBB1FEE1FFF1FA217E0
:1028D000B307E407F50720F0A21BB30BE40BF50BDD
:1028E000661F771F881F991F1A9469F76095709566
:1028F000809590959B01AC01BD01CF010895052EF7
:1029000097FB1EF400940E94961457FD07D00E9476
:102910005D1407FC03D04EF40C949614509540952A
:10292000309521953F4F4F4F5F4F0895909580957B
:10293000709561957F4F8F4F9F4F0895EE0FFF1F4A
:102940000590F491E02D09940E94B614B7FF089504
:10295000821B930B08950E94B614A59F900DB49FFF
:10296000900DA49F800D911D11240895A29FB00188
:10297000B39FC001A39F700D811D1124911DB29FB3
:10298000700D811D1124911D0895CF93DF93823026
:10299000910510F482E090E0E0912A04F0912B047C
:1029A00020E030E0C0E0D0E0309711F1408151816B
:1029B00048175907C0F04817590761F4828193817D
:1029C000209719F09B838A832BC090932B048093CC
:1029D0002A0426C02115310519F04217530718F4AF
:1029E0009A01BE01DF01EF010280F381E02DDCCF0F
:1029F0002115310509F1281B390B2430310590F4DC
:102A000012968D919C9113976115710521F0FB0130
:102A10009383828304C090932B0480932A04FD0146
:102A2000329644C0FD01E20FF31F8193919322502F
:102A300031092D933C933AC0209128043091290408
:102A4000232B41F420910401309105013093290496
:102A500020932804209102013091030121153105B2
:102A600041F42DB73EB74091060150910701241B58
:102A7000350BE0912804F0912904E217F307A0F444
:102A80002E1B3F0B2817390778F0AC014E5F5F4FC4
:102A90002417350748F04E0F5F1F509329044093C9
:102AA00028048193919302C0E0E0F0E0CF01DF9130
:102AB000CF9108950F931F93CF93DF93009709F45D
:102AC0008CC0FC0132971382128200912A0410916B
:102AD0002B040115110581F420813181820F931F90
:102AE00020912804309129042817390779F5F093AB
:102AF0002904E093280471C0D80140E050E0AE17EB
:102B0000BF0750F412962D913C911397AD012115FA
:102B1000310509F1D901F3CF9D01DA013383228315
:102B200060817181860F971F8217930769F4EC010A
:102B300028813981260F371F2E5F3F4F3183208335
:102B40008A819B8193838283452B29F4F0932B0404
:102B5000E0932A0442C01396FC93EE931297ED0182
:102B6000499159919E01240F351FE217F30771F423
:102B700080819181840F951F029611969C938E936C
:102B80008281938113969C938E931297E0E0F0E0FC
:102B9000D80112968D919C911397009719F0F80126
:102BA0008C01F6CF8D919C9198012E5F3F4F820F43
:102BB000931F20912804309129042817390769F4BC
:102BC000309729F410922B0410922A0402C0138229
:102BD00012821093290400932804DF91CF911F9152
:102BE0000F91089581E090E0F8940C94F715F89413
:022BF000FFCF15
:102BF200390500002C048000AF00C800FF00C800A7
:102C0200AF005500AA00FF00AA005500E600D2005E
:102C1200B400D200E600000000000E070E070E0707
:102C2200AC00A800A50000000000670323039F007A
:102C3200AC00A8009C00D000200026002C0032002E
:102C420037003B003E003F0040003F003E003B009B
:102C5200370032002C00260020001A0014000E005B
:102C62000900050002000100000001000200050049
:102C720009000E0014001A0000000000A1002C0739
:102C8200E003860719078F045304AA031007F60608
:102C9200580600000000CA053305620511069305B7
:102CA2007105850553656C6563746F72203A005334
:102CB200656E736F723A2000506172746974696F45
:082CC2006E3A20000D0A00002B
:00000001FF
